:060000000A128A11122809
:10000800FE000308F6000408F7000A08F800831247
:1000180003137F08F9000A128A154C2D0A128A1553
:100028005F2B031000300318013083120313AC0058
:100038000A128A15D5220A128A112A30831203134A
:10004800A9009130AA000A128A1511240A128A11ED
:100058002D2883120313061C32283328602886189B
:1000680036283728602806193A283B286028861938
:100078003E283F2860280A128A1573220A128A111C
:10008800831203139501FF309B0006080F39AB005C
:100098002B08AC0014300A128A153E230A128A1162
:1000A8003B3083120313A9009130AA000A128A1563
:1000B80011240A128A112D28061C63286428922804
:1000C800861C67286828922806196B286C289228AD
:1000D80086196F28702892280A128A1573220A1224
:1000E8008A11B430831203139500FF309B00060871
:1000F8000F39AB002B08AC0014300A128A153E23C6
:100108000A128A11183083120313A9009130AA0029
:100118000A128A1511240A128A112D280618952800
:100128009628C428861C99289A28C42806199D2828
:100138009E28C4288619A128A228C4280A128A152C
:1001480073220A128A11C830831203139500FF30F4
:100158009B0006080F39AB002B08AC0014300A12BC
:100168008A153E230A128A11043083120313A90048
:100178009130AA000A128A1511240A128A112D2810
:10018800061CC728C828F628861CCB28CC28F628A1
:10019800061DCF28D028F6288619D328D428F62873
:1001A8000A128A1573220A128A11C830831203139D
:1001B8009500FF309B0006080F39AB002B08AC00F8
:1001C80014300A128A153E230A128A110430831247
:1001D8000313A9009130AA000A128A1511240A12E1
:1001E8008A112D280618F928FA282829861CFD289E
:1001F800FE282829061D01290229282986190529EA
:10020800062928290A128A1573220A128A11FF3030
:10021800831203139500FF309B0006080F39AB00CB
:100228002B08AC0014300A128A153E230A128A11D0
:10023800433083120313A9009130AA000A128A15C9
:1002480011240A128A112D2806182B292C295A291B
:1002580086182F2930295A29061D332934295A2965
:100268008619372938295A290A128A1573220A1237
:100278008A11FF30831203139500C8309B000608CB
:100288000F39AB002B08AC0014300A128A153E2334
:100298000A128A11F93083120313A9009030AA00B8
:1002A8000A128A1511240A128A112D2806185D29A6
:1002B8005E298C29861C612962298C29061D6529DD
:1002C80066298C29861D69296A298C290A128A15AA
:1002D80073220A128A11FF30831203139500C83063
:1002E8009B0006080F39AB002B08AC0014300A122B
:1002F8008A153E230A128A11F93083120313A900C2
:100308009030AA000A128A1511240A128A112D287F
:1003180006188F299029BE29861893299429BE2961
:10032800061D97299829BE29861D9B299C29BE2927
:100338000A128A1573220A128A11FF3083120313D4
:100348009500B4309B0006080F39AB002B08AC00B1
:1003580014300A128A153E230A128A110F308312AA
:100368000313A9009130AA000A128A1511240A124F
:100378008A112D280618C129C229EF298618C529EE
:10038800C629EF290619C929CA29EF29861DCD29A9
:10039800CE29EF290A128A1573220A128A11FF3010
:1003A8008312031395009B0106080F39AB002B0835
:1003B800AC0014300A128A153E230A128A1133300F
:1003C80083120313A9009130AA000A128A15112476
:1003D8000A128A112D280618F229F329422A8618AA
:1003E800F629F729422A0619FA29FB29422A8619E9
:1003F800FE29FF29422A0A128A1573220A128A1133
:10040800831203132C08013A03190B2A0C2A1F2AFA
:100418002C08033A0319112A122A1F2A2C08023A17
:100428000319172A182A1F2A2C08073A031D1D2A00
:100438001E2A232A1F2A9501FF309B002D282C08ED
:10044800083A0319282A292A3C2A2C08043A0319AD
:100458002E2A2F2A3C2A2C080C3A0319342A352A2A
:100468003C2A2C080E3A031D3A2A3B2A2D283C2AFE
:10047800FF3095009B012D282D282D28061C452A84
:10048800462A2D28861C492A4A2A2D28061D4D2A27
:100498004E2A2D28861D512A522A2D280A128A15DD
:1004A80073220A128A112D282D282D282D282D284F
:1004B8002D282D282D282D282D282D282D282D288C
:1004C8000800831603138C128B130B138B120A125A
:1004D8008A156C220A128A110A128A15D5220A1262
:1004E8008A1100300A128A153E230A128A11A33093
:1004F80083120313A9009030AA000A128A15112446
:100508000A128A1114300A128A153E230A128A1115
:10051800C43083120313A9009030AA000A128A1566
:1005280011240A128A11982A0A300A128A15B4224A
:100538000A128A110038031DA22AA32AA72A8312A5
:1005480003130915AB2A831203130911AB2A1830B8
:100558000A128A15B4220A128A1183120313AB00F5
:100568002B08AC0019300A128A15B4220A128A1113
:1005780083120313AB002B08AD0016300A128A153C
:10058800B4220A128A1183120313AB002B08AE009F
:1005980017300A128A15B4220A128A118312031319
:1005A800AB002B08AF0004300A128A15B4220A12D5
:1005B8008A110038031DE12AE22AEE2A0A128A1556
:1005C80073220A128A11E630831203139500E6306B
:1005D8009B00982A06300A128A15B4220A128A1138
:1005E8000038031DF82AF92A052B0A128A157A22DF
:1005F8000A128A11E630831203139500E6309B0035
:10060800982A07300A128A15B4220A128A11003869
:10061800031D0F2B102B1C2B0A128A1588220A1275
:100628008A11E630831203139500E6309B00982A5E
:1006380005300A128A15B4220A128A110038031DDD
:10064800262B272B332B0A128A1581220A128A118C
:10065800E630831203139500E6309B00982A831234
:1006680003132C08031D392B772B0A128A157322C2
:100678000A128A11831203132E08031D442B572BC9
:100688002C082E020318492B4A2B502B2E03FF3A15
:100698002C078C3E9500532B8C309500532B2C083F
:1006A8008C3E9B00982A2F08031D5B2B6E2B2C0871
:1006B8002F020318602B612B672B2F03FF3A2C079F
:1006C8008C3E9B006A2B8C309B006A2B2C088C3E3E
:1006D8009500982A2C088C3E95002C088C3E9B008F
:1006E800982A982A982A2D08031D7B2BB92B0A12C1
:1006F8008A157A220A128A11831203132E08031DFF
:10070800862B992B2D082E0203188B2B8C2B922BC2
:100718002E03FF3A2D078C3E9B00952B8C309B00B7
:10072800952B2D088C3E9500982A2F08031D9D2B8C
:10073800B02B2D082F020318A22BA32BA92B2F03B4
:10074800FF3A2D078C3E9500AC2B8C309500AC2BD6
:100758002D088C3E9B00982A2D088C3E95002D086C
:100768008C3E9B00982A982A982A2E08031DBD2B98
:10077800CB2B0A128A1588220A128A1183120313B4
:100788002E08783E95002E08783E9B00982A2F0860
:10079800031DCF2BDD2B0A128A1581220A128A111A
:1007A800831203132F08783E95002F08783E9B008C
:1007B800982A0A128A156C220A128A11FF308312AB
:1007C80003139500FF309B00982A982A982A982AA4
:1007D800982A982A982A982A982A982A080000304D
:1007E80083120313A3000130A2008630A100A030B9
:1007F800A0003108A7003008A6002F08A5002E0881
:10080800A4000A128A15DC240A128A11831203131F
:100818002008B2003208B3000030A3000130A20063
:100828008630A100A030A0003108A7003008A6003B
:100838002F08A5002E08A4000A128A157E240A1281
:100848008A11831203132308B1002208B00021087B
:10085800AF002008AE000030A3000030A20027300F
:10086800A1001030A0003108A7003008A6002F080A
:10087800A5002E08A4000A128A15DC240A128A117F
:10088800831203132008B2003208B4000030A3001A
:100898000030A2002730A1001030A0003108A700C6
:1008A8003008A6002F08A5002E08A4000A128A15F1
:1008B8007E240A128A11831203132308B100220826
:1008C800B0002108AF002008AE000030A3000030BF
:1008D800A2000330A100E830A0003108A7003008CA
:1008E800A6002F08A5002E08A4000A128A15DC24E9
:1008F8000A128A11831203132008B2003208B500C5
:100908000030A3000030A2000330A100E830A000AE
:100918003108A7003008A6002F08A5002E08A4005B
:100928000A128A157E240A128A11831203132308D5
:10093800B1002208B0002108AF002008AE00003046
:10094800A3000030A2000030A1006430A0003108EC
:10095800A7003008A6002F08A5002E08A4000A1238
:100968008A15DC240A128A11831203132008B200A4
:100978003208B6000030A3000030A2000030A10009
:100988006430A0003108A7003008A6002F08A50091
:100998002E08A4000A128A157E240A128A118312CC
:1009A80003132308B1002208B0002108AF00200873
:1009B800AE000030A3000030A2000030A1000A30D1
:1009C800A0003108A7003008A6002F08A5002E08AF
:1009D800A4000A128A15DC240A128A11831203134E
:1009E8002008B2003208B7000030A3000030A2008F
:1009F8000030A1000A30A0003108A7003008A60086
:100A08002F08A5002E08A4000A128A157E240A12AF
:100A18008A11831203132308B1002208B0002108A9
:100A2800AF002008AE003308303E0A128A150423AE
:100A38000A128A11831203133408303E0A128A15E7
:100A480004230A128A11831203133508303E0A124E
:100A58008A1504230A128A11831203133608303EBA
:100A68000A128A1504230A128A11831203133708FB
:100A7800303E0A128A1504230A128A1183120313BC
:100A88002E08303E0A128A1504230A128A11080019
:100A980083120313C3010314C30D0A128A15D52246
:100AA8000A128A11E03083120313A9009030AA00B9
:100AB8000A128A1511240A128A1114300A128A1588
:100AC8003E230A128A11623083120313A90091305F
:100AD800AA000A128A1511240A128A11732D831288
:100AE80003130918782D792DBE2D7B2D7B2D091C1C
:100AF8007E2D7F2D7B2D802D0130C2004208C3073B
:100B080014300A128A153E230A128A11B42D58305D
:100B180083120313A9009130AA000A128A1511241E
:100B28000A128A11BE2D5D3083120313A900913079
:100B3800AA000A128A1511240A128A11BE2D5330EE
:100B480083120313A9009130AA000A128A151124EE
:100B58000A128A1183120313C3010314C30DBE2D95
:100B6800831203134308023A03198B2D013A031920
:100B7800972DA32D831203138918C32DC42D732D0C
:100B8800C62DC62D891CC92DCA2DC62DCE2DCE2DFC
:100B9800732D732D0A128A15D5220A128A11213053
:100BA80083120313A9009130AA000A128A1511248E
:100BB8000A128A11DF2D14300A128A153E230A12EE
:100BC8008A118312031343080A128A15C0250A12D0
:100BD8008A11831203133A08C501C5073908C401ED
:100BE800C4074408AE004508AF000030AF1BFF3013
:100BF800B000B1000A128A11F3230A128A11831273
:100C080003134508803AFF0080307F02031D0E2E33
:100C180029304402031C112E122E1F2E0A128A1587
:100C280073220A128A11FF30831203139500FF30D2
:100C38009B000911DF2D831203134508803AFF003A
:100C480080307F02031D2A2E1F304402031C2D2EE4
:100C58002E2E3B2E0A128A1573220A128A11E630AA
:100C6800831203139500E6309B000911DF2D8312D0
:100C780003134508803AFF0080307F02031D462E8B
:100C880015304402031C492E4A2E532E0A128A1587
:100C98006C220A128A11831203130911DF2D0A121A
:100CA8008A157A220A128A11E630831203139500F4
:100CB800E6309B000915DF2DDF2DDF2DDF2DDF2D21
:100CC8000800031000300318013083120313C80012
:100CD8000310003003180130C7000A128A1549268C
:100CE8000A128A1102300A128A15B0230A128A11CE
:100CF8008312031386160A128A15D5220A128A113C
:100D0800ED3083120313A9009030AA000A128A1545
:100D180011240A128A1114300A128A153E230A1263
:100D28008A11831203134808C6004607553E8400FB
:100D380083130008A900840A0008AA000A128A1569
:100D480011240A128A11831203130911AB2E83127C
:100D580003130918B02EB12EEC2EB32EB32E091C96
:100D6800B62EB72EB32EB82E0130C6004608C807D7
:100D780005304802031CC12EC22EC82E03100030B5
:100D880003180130C800C82E14300A128A153E23F1
:100D98000A128A11831203134808C6004607553EF3
:100DA800840083130008A900840A0008AA000A1214
:100DB8008A1511240A128A11683083120313A900B4
:100DC8009030AA000A128A1511240A128A11EC2EF0
:100DD800831203138918F12EF22EAB2EF42EF42E63
:100DE800891CF72EF82EF42E192F192F0A128A11A2
:100DF80015200A128A11AB2E0A128A114C250A12E2
:100E08008A11AB2E0A128A15D7260A128A11AB2E1E
:100E18000A128A1132270A128A11AB2E0A128A1173
:100E280065220A128A11AB2EAB2E831203134808CF
:100E3800003A0319FA2E013A0319002F033A03194D
:100E4800062F013A03190C2F073A0319122FAB2E5C
:100E5800AB2EAB2EAB2E0A128A1112280A128A1553
:100E6800D5220A128A1100300A128A153E230A1264
:100E78008A11831203134908643A031D442F452F2E
:100E8800F02F9230A9009030AA000A128A15112476
:100E98000A128A11C830831203139500C8309B00C8
:100EA800552F14300A128A153E230A128A1183120A
:100EB80003131A08383A031D622F632F742F0A127E
:100EC8008A1573220A128A11B43083120313A900F7
:100ED8009030AA000A128A1511240A128A11552F75
:100EE800831203131A08323A031D7B2F7C2F8D2F90
:100EF8000A128A157A220A128A115F3083120313A2
:100F0800A9009030AA000A128A1511240A128A111F
:100F1800552F831203131A08363A031D942F952F61
:100F2800A62F0A128A1581220A128A118130831289
:100F38000313A9009030AA000A128A1511240A1274
:100F48008A11552F831203131A08343A031DAD2F43
:100F5800AE2FBF2F0A128A1588220A128A11703002
:100F680083120313A9009030AA000A128A151124CB
:100F78000A128A11552F831203131A08353A031DD2
:100F8800C62FC72FD82F0A128A156C220A128A1167
:100F98004D3083120313A9009030AA000A128A1553
:100FA80011240A128A11552F0A128A156C220A1264
:100FB8008A114D3083120313A9009030AA000A1237
:100FC8008A1511240A128A11552F552F552F552F7E
:100FD800552F552F552F372F4B3083120313A90048
:100FE8009130AA000A128A1511240A128A11372F81
:060FF800372F372F08001F
:1014D800831203130716871607148715080083124B
:1014E80003130710871507128716080083120313C2
:1014F80007148711071687120800831203130712AF
:10150800871607148711080083120313071687121A
:101518000710871508002234903430349034123480
:1015280090343D3490344634903483120313A00031
:101538009D2A0C1EA02AA12A9D2AA22A20089900C9
:101548000800A62A831203138C1EAB2AAC2AA62AEB
:10155800AD2A1A08A0002008A1002108B32A080013
:1015680083120313A20022080A128A1599220A126A
:101578008A150A128A15A5220A128A15C32A080092
:101588007E088A007F088200C4220A128A15800019
:10159800840A04087D0603190034FF0A0319FE0AA9
:1015A800C82A01300A128A15EB220A128A1500305D
:1015B80083120313A3000030A2000030A1000A30F8
:1015C800A0000A128A1544240A128A1508008312F8
:1015D8000313A8008613280888000030A3000030F1
:1015E800A2000030A1000230A0000A128A1544248B
:1015F8000A128A150A128A151D230A128A1508006A
:1016080083120313A8008617280888000030A30057
:101618000030A2000030A1000230A0000A128A1592
:1016280044240A128A150A128A151D230A128A15D9
:1016380008008312031306170030A3000030A2002D
:101648000030A1000130A0000A128A1544240A12B1
:101658008A158312031306130030A3000030A2007A
:101668000030A1000230A0000A128A1544240A1290
:101678008A15080083120313AA0010302A020318DF
:10168800462B472B4F2B2A08803E0A128A15EB223D
:101698000A128A155E2B831203132A08EC3EA9004E
:1016A8002908AA002A08C03E0A128A15EB220A1243
:1016B8008A155E2B0800F001F101F201F301F40133
:1016C800C901CA01CB01CC01CD01CE01CF01D001A6
:1016D800D101D201D301D40183135F30FD000A3058
:1016E800FE008F30FF00553084000A128A15C82288
:1016F8000A128A1583010A128A11652E0030831294
:101708000313A4000030A500892B201C8C2B8D2BE3
:10171800932B2208A4070318A50A2308A50701305C
:101728000310A20DA30DFF3E031D942B01300310DF
:10173800A10CA00CFF3E031D9B2B21082004031DB8
:10174800A62BA72B892BA82B2508A101A1072408C4
:10175800A001A007AF2B080083120313A800D32B06
:1017680009150030A3000030A2000130A100C230EA
:10177800A0000A128A1544240A128A158312031338
:1017880009110030A3000030A2000130A1002C3064
:10179800A0000A128A1544240A128A15D32B013094
:1017A80083120313A8022808FF3A031DDC2BDD2B44
:1017B800B42BDE2B08008312031323082204210410
:1017C8002004031DE82BE92BEB2B102C102C0130E7
:1017D800A4000030A5000030A6000030A7002408AF
:1017E800A0022508031C250FFA2BFB2BA1022608B3
:1017F800031C260F002C012CA2022708031C270F0C
:10180800062C072CA3022308220421042004031D0C
:101818000E2C0F2CEB2B102C08002B2C83120313EF
:101828002A08FF00290884000A168A1100200A12D3
:101838008A150A128A1504230A128A15013083129E
:101848000313A9070318AA0A0030AA072B2C83122E
:1018580003132A0829040319322C332C432C2A0891
:10186800FF00290884000A168A1100200A128A1526
:101878000038031D402C412C122C432C432C08000B
:101888004C2CA63083120313A400A40B492C64002B
:10189800013083120313A4000030A5000030A60015
:1018A8000030A7002408A0022508031C250F5D2C82
:1018B8005E2CA1022608031C260F632C642CA202AE
:1018C8002708031C270F692C6A2CA302FF30230664
:1018D800031D782CFF302206031D782CFF302106CB
:1018E800031D782CFF302006031D7B2C7C2C452CF7
:1018F8007D2C0800831203132308220421042004EA
:101908000319872C882CD22CA9010314A90D9A2C11
:101918000130A8000310A00DA10DA20DA30DA80B66
:101928008E2C0130A8002808A9079A2CA31F9D2CEB
:101938009E2C8C2CA02CA02C23082702031DAE2C37
:1019480022082602031DAE2C21082502031DAE2CF9
:1019580020082402031CB12CB22CC12C2008A4029C
:101968002108031C210FA5022208031C220FA6022E
:101978002308031C230FA702C12C01300310A30C5A
:10198800A20CA10CA00CFF3E031DC22C0130A90221
:10199800031DCF2CD02CA02CD22CD22C2708A3008E
:1019A8002608A2002508A1002408A000DB2C0800B6
:1019B800003083120313AC000030AB000030AA00E3
:1019C8000030A90023082204210420040319ED2C67
:1019D800EE2C422DAD010314AD0D002D0130A800F1
:1019E8000310A00DA10DA20DA30DA80BF42C01301E
:1019F800A8002808AD07002DA31F032D042DF22CE5
:101A0800062D062D0130A8000310A90DAA0DAB0D57
:101A1800AC0DA80B082D23082702031D1D2D220835
:101A28002602031D1D2D21082502031D1D2D20083A
:101A38002402031C202D212D312D2008A402210869
:101A4800031C210FA5022208031C220FA60223084B
:101A5800031C230FA7022914312D01300310A30CF6
:101A6800A20CA10CA00CFF3E031D322D0130AD02CB
:101A7800031D3F2D402D062D422D422D2C08A3007D
:101A88002B08A2002A08A1002908A0004B2D080055
:101A98000B1D4F2D502D582D0B110030F00703183A
:101AA800F10A0130F107582D0B1C5B2D5C2D702DB0
:101AB8000B10061E602D612D672D81010030F0008E
:101AC8000030F100702D01087007D100710803186B
:101AD800710AD200702D702D8C1E732D742DB52DAA
:101AE8008C121A08523A031D7A2D7B2D852D1A085F
:101AF800F5000030F300493E840075088313800028
:101B0800962D1A08643A031D8A2D8B2D962D1A08D6
:101B1800F5000030F300493E840075088313800007
:101B2800962D962D4908523A031D9B2D9C2DA92DC3
:101B38001A08F5007308493E84007508831380006D
:101B48000130F5007508F307A92D05307302031C51
:101B5800AE2DAF2DB52D0430F5007508F300B52D69
:101B6800B52D7908FF0078088A0077088400760880
:101B78008300FE0E7E0E090083120313BF00322E6F
:101B880081300A128A1569270A128A1583120313EB
:101B98005408C101C1075308C001C0073F2E5208AD
:101BA800C101C1075108C001C0073F2E4908523A78
:101BB800031DDF2DE02D1C2E4A08D03EA000FF306B
:101BC80003180030A1006430A2000030A3000A12FC
:101BD8008A1582230A128A15831203134C082007D8
:101BE800BB0021080318210ABC004B08D03EA00006
:101BF800FF3003180030A1000A30A2000030A30013
:101C08000A128A1582230A128A15831203132008DE
:101C18003B07BD0021080318210A3C07BE003D0808
:101C2800D03EC0003E080318013EFF3EC1003F2ED3
:101C380014300A128A153E230A128A15D2308312EA
:101C48000313A9009030AA000A128A1511240A1257
:101C58008A152E2E2E2E3F2E3F2E3F2E8312031333
:101C68003F08013A0319C42D033A0319D32D013A49
:101C78000319DA2D3F2E831203134108BA01BA075C
:101C88004008B901B907482E0800831203138501DB
:101C98008601870188018901333083160313850083
:101CA8001F308600803087008801033089000030AB
:101CB80083120313A3000030A2000030A1000A30F1
:101CC800A0000A128A1544240A128A158430831641
:101CD80003139F008B15FF30920004308312031307
:101CE80092000C3097000C309D008316031381126C
:101CF80081110115811401148B16831203138101BC
:101D08008130831603139900181598161813831237
:101D18000313181698171813831603138C168B17AA
:101D28000B178312031306170030A3000030A2001C
:101D38000030A1000F30A0000A128A1544240A12AC
:101D48008A1538300A128A15EB220A128A150630CB
:101D58000A128A15EB220A128A150C300A128A1501
:101D6800EB220A128A1501300A128A15EB220A128E
:101D78008A15003083120313A3000030A20000303C
:101D8800A1000530A0000A128A1544240A128A15F7
:101D9800831203130515861209110A128A156C227B
:101DA8000A128A1508000A128A15D5220A128A15FB
:101DB800213083120313A9009130AA000A128A1550
:101DC80011240A128A15E82E14300A128A153E23A5
:101DD8000A128A1589300A128A1569270A128A1581
:101DE800831203135408BA01BA075308B901B90793
:101DF8005308AE005408AF00B001B1010A128A11AD
:101E0800F3230A128A15831203133A08803AFF0053
:101E180080307F02031D122FC83039020318152F96
:101E2800162F232F0A128A157A220A128A15FF30D2
:101E3800831203139500FF309B000911E82E8312CB
:101E480003133A08803AFF0080307F02031D2E2FCB
:101E5800FA3039020318312F322F3F2F0A128A1510
:101E68007A220A128A15E630831203139500E630A7
:101E78009B000911E82E831203133A08803AFF00E9
:101E880081307F02031D4A2F2C30390203184D2F51
:101E98004E2F572F0A128A156C220A128A1583129E
:101EA80003130911E82E0A128A1573220A128A15D9
:101EB800E630831203139500E6309B000915E82EDF
:101EC800E82EE82EE82EE82E080083120313B2004D
:101ED8000030B6000030B5000030B4000030B30068
:101EE80032089F000030A3000030A2002730A10074
:101EF8001030A0000A128A15DF230A128A15C8308A
:101F080083120313B7000030B80038083704031DE4
:101F18008E2F8F2F912FE12FE12F1F15932F1F1930
:101F2800962F972F932F982F1E08AE00AF012E08DB
:101F3800D3002F08D4005408AF005308AE0008306F
:101F4800FF000310AE0DAF0DFF0BA52F2E08D30019
:101F58002F08D4005308831603131E048312031397
:101F6800D3005408D4005308AE005408AF00B001A1
:101F7800B1012E08B3072F0803110318013E0319F6
:101F8800C62FB407300803110318013E0319CD2FDB
:101F9800B507310803110318013E0319D42FB607FA
:101FA8000130B7020030031CB803B8023808370400
:101FB800031DDF2FE02F912FE12F0030A300003009
:101FC800A2000030A100C830A0003608A7003508DC
:101FD800A6003408A5003308A4000A128A15DC24D8
:101FE8000A128A15831203132108D401D407200882
:101FF800D301D3071F100800FF1B0A2883137F187B
:1020080083170008840A0319FF0A08007F087F392C
:102018008A000408840A0319FF0A820033342E3424
:1020280041346E3461346C346F3467342034533443
:1020380065346E3473346F347234003431342E3472
:102048004C3449344E344534203446344F344C34BF
:102058004C344F345734003432342E3455346C34C5
:1020680074347234613473346F346E346934633465
:10207800003434342E3453344B34583442344534D9
:102088004534003435342E3453344B3450345334BF
:10209800003449344E34563441344C344934443491
:1020A800203443344F344D344D3441344E34443469
:1020B8002034203400344234413443344B345734D0
:1020C80041345234443420342034203420342034F1
:1020D80020342034203400345434553452344E34AF
:1020E80020344C344534463454342034203420349D
:1020F80020342034203420340034543455345234BD
:102108004E3420345234493447344834543420341B
:102118002034203420342034203400342034203437
:102128005834423445344534203443344F344E34E3
:10213800543452344F344C34203420340034433433
:102148006F346E34743472346F346C346C34693474
:102158006E346734203450345234323433340034DB
:1021680046344F3452345734413452344434203492
:1021780020342034203420342034203420340034D7
:102188002034203420345534733469346E34673441
:10219800203453344B345034533400346E346F3459
:1021A8007434203463346F346E346E34653463347D
:1021B80074346534643400344D34653461347334B4
:1021C80075347234653420346D346F346434653456
:1021D8000034533465346C346534633474342034D7
:1021E8006D346F346434653400346D345F346C346A
:1021F8006534663474343134203420342034003467
:102208006D345F347234693467346834743431340B
:102218002034203400346D345F346C3465346634D3
:1022280074343234203400346D345F347234693499
:102238006734683474343234003444346934733461
:10224800743461346E3463346534003450346F341C
:1022580073346934743469346F346E3400346C34D4
:1022680065346634743420342034203400347234B5
:1022780069346734683474342034203400346D345D
:102288006934643464346C34653420340034433441
:102298004F344D344D3441344E3444340034413499
:1022A8004434433420340034503457344D342034CB
:1022B80000345534413452345434003441344434B5
:0422C8004334003467
:02400E00323F3F
:00000001FF
