:0600000000308A00122806
:10000800FF00030883120313D1000408D2000A0872
:10001800D3007E08D4000A128A15232C623084008B
:100028000330FE005A30FF0023208000840A0408B1
:100038006C3A03192728FF0A0319FE0A18287E08B4
:100048008A007F0882006C30840070300A128A119E
:100058003C200A128A118317713084007E300A12FC
:100068008A113C200A128A1183010A128A11442833
:1000780064008001840A04060319003404063D283C
:100088000310003003180130A100031000300318DA
:100098000130A0000030C5000030C4004E30C3005D
:1000A8002030C2000A128A1522230A128A110A1263
:1000B8008A15B8230A128A118312031309150A1222
:1000C8008A11EA210A128A11E73083120313B70052
:1000D8000230B8000A128A15F7220A128A1114305F
:1000E8000A128A158E220A128A1183120313210812
:1000F8008313A2002207623E84000008B700840A26
:100108000008B8000A128A15F7220A128A11831207
:100118000313091183120313091893289428CB2871
:100128009528091C9828992895280130A2002208AA
:10013800A10705302102031CA228A328A828031020
:10014800003003180130A10014300A128A158E22DB
:100158000A128A118312031321088313A2002207AB
:10016800623E84000008B700840A0008B8000A123A
:100178008A15F7220A128A11A63083120313B700D0
:100188000230B8000A128A15F7220A128A1183125D
:1001980003138918D028D1280829D228891CD528E2
:1001A800D628D228F6280A128A1164230A128A113C
:1001B80008290A128A15A1250A128A1108290A1281
:1001C8008A1518250A128A1108290A128A112F2756
:1001D8000A128A1108290A128A11B6250A128A11E6
:1001E8000829082921088313003A0319D728013A56
:1001F8000319DD28033A0319E328013A0319E9280A
:10020800073A0319EF28F5288E280A128A111228AE
:1002180083120313B7000030BD000030BC0000306B
:10022800BB000030BA00370883139F000030C500B8
:100238000030C4002730C3001030C2000A128A15EB
:1002480022230A128A11C83083120313B80000301F
:10025800B9002E291F1530291F19332934293029AF
:100268001E08BE00BF013E08FB003F08FC007C08DA
:10027800BF007B08BE00083084000310BE0DBF0D10
:10028800840B41293E08FB003F08FC00831603133A
:10029800831203137B08831603131E0483120313AC
:1002A800FB007C08FC007B08BE007C08BF00C00186
:1002B800C1013E08BA073F08031103183F0A031D8E
:1002C800BB07400803110318400A031DBC07410877
:1002D80003110318410A031DBD070130B80200309D
:1002E800031CB903B90239083804031D7C297D2988
:1002F8002E290030C9000030C8000030C700C830BF
:10030800C6003D08C5003C08C4003B08C3003A08C5
:10031800C2000A128A1550230A128A118312031383
:100328004208FB01FB074308FC01FC071F100800FB
:100338003A083904380437040319A329A429E829F9
:10034800BB010314BB0DB5290130BC000310B70D68
:10035800B80DB90DBA0DBC0BAA290130BC003C0878
:10036800BB07BA1FB829B929A8293A083602031DBC
:10037800C72939083502031DC72938083402031D67
:10038800C72937083302031CCA29CB29D9293708BA
:10039800B3023808031C380FB4023908031C390F9C
:1003A800B5023A08031C3A0FB60201300310BA0C22
:1003B800B90CB80CB70CFF3E031DDA290130BB029B
:1003C800031DE729E829B929E929080001300A129B
:1003D8008A1574220A128A11831203130030C50089
:1003E8000030C4000130C3005E30C2000A128A1512
:1003F80022230A128A110800FE00FE1F082A83130E
:100408007E188317000808008A0004088200003458
:1004180033342E3441346E3461346C346F34673481
:100428002034533465346E3473346F34723400348A
:1004380031342E344C3449344E3445342034463427
:100448004F344C344C344F345734003432342E3417
:1004580055346C3474347234613473346F346E349C
:1004680069346334003434342E3453344B345834C0
:10047800423445344534003435342E3453344B3407
:1004880050345334003449344E34563441344C34A7
:1004980049344434203443344F344D344D3441349A
:1004A8004E34443420342034003443346F346E34B2
:1004B800743472346F346C346C3469346E34673429
:1004C80020345034523432343334003454345534B4
:1004D80052344E3420344C34453446345434203469
:1004E8002034203420342034203420340034543450
:1004F800553452344E342034523449344734483415
:10050800543420342034203420342034203400342F
:10051800203420345834423445344534203443346C
:100528004F344E34543452344F344C342034203405
:1005380000344234413443344B3457344134523418
:1005480044342034203420342034203420342034DF
:100558002034003446344F34523457344134523402
:1005680044342034203420342034203420342034BF
:10057800203400346E346F347434203463346F3470
:100588006E346E34653463347434653464340034E2
:100598002034203420345534733469346E3467344D
:1005A800203453344B345034533400344D34653490
:1005B8006134733475347234653420346D346F3477
:1005C800643465340034533465346C3465346334CE
:1005D800743420346D346F346434653400346D34CD
:1005E8005F346C34653466347434313420342034E8
:1005F800203400346D345F347234693467346834BD
:10060800743431342034203400346D345F346C3425
:100618006534663474343234203400346D345F34D5
:10062800723469346734683474343234003444348E
:1006380069347334743461346E346334653400342B
:1006480050346F3473346934743469346F346E34AD
:10065800003443344F344D344D3441344E344434F3
:1006680000346C34653466347434203420342034D7
:1006780000346D346934643464346C346534203443
:100688000034723469346734683474342034203464
:1006980000345534413452345434003441344434F1
:1006A80043340034503457344D3400341C3402344D
:1006B8002A3402340C3402343734023440340234DD
:1006C8000A128A11EA210A128A11243083120313AA
:1006D800B7000330B8000A128A15F7220A128A11E5
:1006E80083120313061C792B7A2BAC2B86187D2BCF
:1006F8007E2BAC2B0619812B822BAC2B8619852BD4
:10070800862BAC2B0A128A1546220A128A1103106C
:10071800831203130030031801309500FF309B004B
:100728000608A3000F30A4002408A30514300A12F9
:100738008A158E220A128A11453083120313B700D4
:100748000330B8000A128A15F7220A128A11B42D4A
:10075800061CAF2BB02BDF2B861CB32BB42BDF2B47
:100768000619B72BB82BDF2B8619BB2BBC2BDF2B1D
:100778000A128A1546220A128A11B4308312031308
:100788009500FF309B000608A3000F30A400240842
:10079800A30514300A128A158E220A128A11123001
:1007A80083120313B7000330B8000A128A15F72220
:1007B8000A128A11B42D0618E22BE32B122C861C80
:1007C800E62BE72B122C0619EA2BEB2B122C861999
:1007D800EE2BEF2B122C0A128A1546220A128A11C6
:1007E800C830831203139500FF309B000608A3004E
:1007F8000F30A4002408A30514300A128A158E228B
:100808000A128A11FE3083120313B7000230B800AF
:100818000A128A15F7220A128A11B42D061C152C01
:10082800162C452C861C192C1A2C452C061D1D2C03
:100838001E2C452C8619212C222C452C0A128A158F
:1008480046220A128A11C830831203139500FF301A
:100858009B000608A3000F30A4002408A305143049
:100868000A128A158E220A128A11FE308312031385
:10087800B7000230B8000A128A15F7220A128A1144
:10088800B42D0618482C492C782C861C4C2C4D2C41
:10089800782C061D502C512C782C8619542C552C4C
:1008A800782C0A128A1546220A128A118312031317
:1008B800FF309500FF309B000608A3000F30A4000E
:1008C8002408A30514300A128A158E220A128A11E6
:1008D8003D3083120313B7000330B8000A128A159B
:1008E800F7220A128A11B42D06187B2C7C2CAB2C0B
:1008F80086187F2C802CAB2C061D832C842CAB2CCB
:100908008619872C882CAB2C0A128A1546220A12C3
:100918008A1183120313FF309500C8309B00060824
:10092800A3000F30A4002408A30514300A128A1566
:100938008E220A128A11F33083120313B700023091
:10094800B8000A128A15F7220A128A11B42D06185D
:10095800AE2CAF2CDE2C861CB22CB32CDE2C061D44
:10096800B62CB72CDE2C861DBA2CBB2CDE2C0A121A
:100978008A1546220A128A1183120313FF30950042
:10098800C8309B000608A3000F30A4002408A30564
:1009980014300A128A158E220A128A11F330831231
:1009A8000313B7000230B8000A128A15F7220A1298
:1009B8008A11B42D0618E12CE22C112D8618E52C8D
:1009C800E62C112D061DE92CEA2C112D861DED2C87
:1009D800EE2C112D0A128A1546220A128A11831248
:1009E8000313FF309500B4309B000608A3000F30B6
:1009F800A4002408A30514300A128A158E220A12AC
:100A08008A11093083120313B7000330B8000A12A1
:100A18008A15F7220A128A11B42D0618142D152DDD
:100A2800472D8618182D192D472D06191C2D1D2DFB
:100A3800472D861D202D212D472D0A128A15462265
:100A48000A128A1183120313FF3095000310003035
:100A5800031801309B000608A3000F30A4002408E7
:100A6800A30514300A128A158E220A128A1135300B
:100A780083120313B7000330B8000A128A15F7224D
:100A88000A128A11B42D06184A2D4B2D9F2D86184F
:100A98004E2D4F2D9F2D0619522D532D9F2D861902
:100AA800562D572D9F2D0A128A1546220A128A1191
:100AB8008312031323088313013A0319642D652D48
:100AC800772D2308033A03196A2D6B2D772D2308F8
:100AD800023A0319702D712D772D2308073A031D4B
:100AE800762D772D7F2D03100030031801309500E7
:100AF800FF309B009E2D2308083A0319842D852D6D
:100B0800972D2308043A03198A2D8B2D972D230836
:100B18000C3A0319902D912D972D23080E3A031D99
:100B2800962D972D9E2DFF30950003100030031849
:100B380001309B00B42D061CA22DA32DB42D861CBC
:100B4800A62DA72DB42D061DAA2DAB2DB42D861DBF
:100B5800AE2DAF2DB42D0A128A1546220A128A111B
:100B6800742B0800831603138C12831203138B1340
:100B78000B138B120A128A152C220A128A110A12D6
:100B88008A11EA210A128A1100300A128A158E2265
:100B98000A128A11593083120313B7000230B800C1
:100BA8000A128A15F7220A128A1114300A128A15B3
:100BB8008E220A128A11CC3083120313B700023036
:100BC800B8000A128A15F7220A128A110A300A1284
:100BD8008A1563220A128A110038031DF42DF52D97
:100BE800F92D831203130915FC2D83120313091120
:100BF80018300A128A1563220A128A118312031303
:100C0800A50019300A128A1563220A128A11831262
:100C18000313A60016300A128A1563220A128A11D3
:100C280083120313A30017300A128A1563220A12CB
:100C38008A1183120313A40004300A128A1563224E
:100C48000A128A110038031D2A2E2B2E372E0A125B
:100C58008A1546220A128A11E63083120313950078
:100C6800E6309B002D2F06300A128A1563220A12DD
:100C78008A110038031D412E422E4E2E0A128A1563
:100C88003F220A128A11E630831203139500E630D8
:100C98009B002D2F07300A128A1563220A128A1127
:100CA8000038031D582E592E652E0A128A1538222F
:100CB8000A128A11E630831203139500E6309B006E
:100CC8002D2F05300A128A1563220A128A1100385C
:100CD800031D6F2E702E7C2E0A128A1531220A12DD
:100CE8008A11E630831203139500E6309B002D2FFE
:100CF80083120313A508031D822EBD2E0A128A151E
:100D080046220A128A1183120313A308031D8D2E8B
:100D18009F2E2508831323020318932E942E992EB1
:100D2800230825028C3E95009B2E8C3095002508C3
:100D38008C3E9B00BC2EA408031DA32EB52E2508AF
:100D4800831324020318A92EAA2EAF2E24082502E5
:100D58008C3E9B00B12E8C309B0025088C3E950064
:100D6800BC2E250883138C3E950025088C3E9B00DD
:100D78002D2FA608031DC12EFC2E0A128A153F220C
:100D88000A128A1183120313A308031DCC2EDE2E28
:100D98002608831323020318D22ED32ED82E230815
:100DA80026028C3E9B00DA2E8C309B0026088C3E57
:100DB8009500FB2EA408031DE22EF42E26088313AB
:100DC80024020318E82EE92EEE2E240826028C3E73
:100DD8009500F02E8C30950026088C3E9B00FB2E4B
:100DE800260883138C3E950026088C3E9B002D2FE9
:100DF800A308031D002F0F2F0A128A1538220A1282
:100E08008A118312031323088313783E950023085D
:100E1800783E9B002D2FA408031D132F222F0A12A2
:100E28008A1531220A128A118312031324088313A4
:100E3800783E95002408783E9B002D2F0A128A15CB
:100E48002C220A128A1183120313FF309500FF30F7
:100E58009B00EA2D08000A128A11EA210A128A1157
:100E680000300A128A158E220A128A11831203137D
:100E78007108643A031D412F422FDD2F8C30B700D3
:100E88000230B8000A128A15F7220A128A11C830ED
:100E9800831203139500C8309B0014300A128A1578
:100EA8008E220A128A11831203131A08383A031D74
:100EB8005E2F5F2F702F0A128A1546220A128A1196
:100EC800AE3083120313B7000230B8000A128A1535
:100ED800F7220A128A11DC2F1A08323A031D752FDD
:100EE800762F872F0A128A153F220A128A119D30FF
:100EF80083120313B7000230B8000A128A15F722CA
:100F08000A128A11DC2F1A08363A031D8C2F8D2FEE
:100F18009E2F0A128A1531220A128A117B308312F7
:100F28000313B7000230B8000A128A15F7220A1212
:100F38008A11DC2F1A08343A031DA32FA42FB52FCA
:100F48000A128A1538220A128A116A308312031388
:100F5800B7000230B8000A128A15F7220A128A115D
:100F6800DC2F1A08353A031DBA2FBB2FCC2F0A12D3
:100F78008A152C220A128A11473083120313B700EC
:100F88000230B8000A128A15F7220A128A11DC2FD9
:100F98000A128A152C220A128A1147308312031367
:100FA800B7000230B8000A128A15F7220A128A110D
:100FB800512F2D30B7000330B8000A128A15F722D6
:100FC8000A128A11342F0800BA0086173A088313C8
:100FD80088000030C5000030C4000130C3009030E4
:100FE800C2000A128A1522230A128A110A128A15C5
:080FF800AC220A128A11080064
:101458000716871607148715080083120313071247
:1014680087160714871108008312031307168712BB
:10147800071087150800831203130714871107162E
:10148800871208008312031307108715071287169F
:101498000800A8004F2A0C1E522A532A4F2A28084F
:1014A80099000800572A831203138C1E5C2A5D2AB0
:1014B800572A1A08A80028088313622A08008312EA
:1014C8000313A700270883130A128A154D220A124C
:1014D8008A150A128A1556220A128A15732A0800D2
:1014E80083120313B800861338088313880000306A
:1014F800C5000030C4000130C3009030C2000A1299
:101508008A1522230A128A150A128A15AC220A128F
:101518008A15080083120313B70010303702031826
:10152800962A972AA02A37088313803E0A128A151A
:1015380074220A128A15AB2A37088313EC3EB700C7
:101548003708C03E0A128A1574220A128A15080042
:101558008312031306170030C5000030C4000130A1
:10156800C3002C30C2000A128A1522230A128A15D7
:101578008312031306130030C5000030C400013085
:10158800C3002C30C2000A128A1522230A128A15B7
:1015980008000030BB000030BC00371CD42AD52A14
:1015A800DB2A3908BB070318BC0A3A08BC07013014
:1015B8000310B90DBA0DFF3E031DDC2A01300310DC
:1015C800B80CB70CFF3E031DE32A38083704031D87
:1015D800EE2AEF2AD12A3B08B701B7073C08B80121
:1015E800B807F62A08000E2B3708840038080A12B4
:1015F8008A1100220A128A150A128A11E8270A1289
:101608008A15013083120313B7070318B80AB90003
:10161800B91BB803380837040319132B142B212BD3
:101628003708840038080A128A1100220A128A151B
:101638000038031D202B212BF82A080045084404F4
:1016480043044204031D292B2A2B2B2B4F2B01303B
:10165800C6000030C7000030C8000030C900460886
:10166800C2024708031C470F3A2B3B2BC30248080A
:10167800031C480F402B412BC4024908031C490F87
:10168800462B472BC5024508440443044204031D66
:101698004E2B4F2B2B2B08000030CE000030CD00F6
:1016A8000030CC000030CB00490848044704460409
:1016B80003195F2B602BAE2BCA010314CA0D712BC3
:1016C8000130CF000310C60DC70DC80DC90DCF0BD3
:1016D800662B0130CF004F08CA07C91F742B752B22
:1016E800642B0130CF000310CB0DCC0DCD0DCE0DEA
:1016F800CF0B772B49084502031D8C2B4808440261
:10170800031D8C2B47084302031D8C2B46084202FD
:10171800031C8F2B902B9F2B4608C2024708031CE3
:10172800470FC3024808031C480FC4024908031C9A
:10173800490FC5024B1401300310C90CC80CC70C63
:10174800C60CFF3E031DA02B0130CA02031DAD2BA2
:10175800AE2B752B4E08C5004D08C4004C08C300BD
:101768004B08C200B72B08008430831603139F0070
:10177800831203138B1583160313FF309200043072
:101788008312031392000C3097000C309D00033035
:101798008316031385001F308600803087000310EE
:1017A800003003180130880003308900811281114C
:1017B800011581140114831203138B1603100030D2
:1017C800031801308100813083160313990018151E
:1017D80098161813831203131816981718138316DC
:1017E80003138C16831203138B170B1701300A127D
:1017F8008A1574220A128A1502300A128A1574226E
:101808000A128A1506300A128A1574220A128A15D3
:101818000C300A128A1574220A128A1538300A12F4
:101828008A1574220A128A15831203130515861263
:1018380009110A128A152C220A128A1508000B1D92
:10184800262C272C2E2C0B110030EE070318EF0A3C
:101858000130EF070B1C312C322C482C0B10061EC4
:10186800362C372C412C031000300318013081002E
:101878000030EE000030EF00482C01086E07EC0045
:101888006F0803186F0AED008C1E4B2C4C2C852C0E
:101898008C121A08523A031D522C532C5C2C1A082D
:1018A800D0000030F900713E8400500880006A2C96
:1018B8001A08643A031D612C622C6A2C1A08D0009D
:1018C8000030F900713E8400500880007108523AD7
:1018D800031D6F2C702C7B2C1A08D0007908713EE0
:1018E8008400500880000130D0005008F907053006
:1018F8007902031C802C812C852C0430D0005008E0
:10190800F9005408FE0053088A0052088400510860
:101918008300FF0E7F0E0900AC00052D81300A12EE
:101928008A110C210A128A15831203137B08AD0150
:10193800AD077C08AE01AE07102D6C08AD01AD07F0
:101948006D08AE01AE07102D7108523A031DAD2C7B
:10195800AE2CF22C6430B9000030BA00D030AF00A1
:10196800FF30B00072082F07B70030080318300A9C
:10197800B8000A128A15CD220A128A158312031397
:1019880074083707B10038080318380AB2000A305B
:10199800B9000030BA00D030B300FF30B40073088B
:1019A8003307B70034080318340AB8000A128A1536
:1019B800CD220A128A158312031337083107B5009E
:1019C80038080318380A3207B6003508D03EAD008B
:1019D80036080318013EFF3EAE00042D14300A12EB
:1019E8008A158E220A128A15BE3083120313B70095
:1019F8000230B8000A128A15F7220A128A15032D36
:101A0800102D2C08013A0319922C033A0319A12C22
:101A1800013A0319A82C042D2D08AA01AA072E089B
:101A2800AB01AB07172D08000A128A11EA210A1226
:101A38008A151B3083120313B7000330B8000A124B
:101A48008A15F7220A128A1514300A128A158E226C
:101A58000A128A1589300A128A110C210A128A156B
:101A6800831203137B08A301A3077C08A401A4071E
:101A78007B08AA007C08AB00AC01AD010A128A15EC
:101A8800AD260A128A15831203132408803AA5008A
:101A980080302502031D522DC83023020318552D0E
:101AA800562D632D0A128A153F220A128A158312AF
:101AB8000313FF309500FF309B0009119F2D240868
:101AC800803AA50080302502031D6C2DFA302302D0
:101AD80003186F2D702D7D2D0A128A153F220A12C8
:101AE8008A15E630831203139500E6309B0009112E
:101AF8009F2D2408803AA50081302502031D862DDC
:101B08002C3023020318892D8A2D932D0A128A1549
:101B18002C220A128A158312031309119F2D0A1207
:101B28008A1546220A128A15E63083120313950095
:101B3800E6309B000915282D0800A3010314A30D06
:101B48000A128A11EA210A128A15DA30831203135B
:101B5800B7000230B8000A128A15F7220A128A154D
:101B680014300A128A158E220A128A1552308312EC
:101B78000313B7000330B8000A128A15F7220A12B5
:101B88008A15831203130918CA2DCB2D092ECC2DC3
:101B9800091CCF2DD02DCC2D0130A6002608A30777
:101BA80014300A128A158E220A128A15FE2D563012
:101BB800B7000330B8000A128A15F7220A128A15EC
:101BC800092E4D30B7000330B8000A128A15F722E3
:101BD8000A128A15092E5230B7000330B8000A12CB
:101BE8008A15F7220A128A1583120313A301031414
:101BF800A30D092E8312031323088313023A031932
:101C0800DB2D013A0319E52DEF2D831203138918F3
:101C18000E2E0F2E152E102E891C132E142E102E5C
:101C2800162EC52D0A128A11EA210A128A151B30AE
:101C380083120313B7000330B8000A128A15F7227B
:101C48000A128A1514300A128A158E220A128A1567
:101C580083120313230883130A128A1590240A1285
:101C68008A15831203132A08A401A4072B08A501C7
:101C7800A5072408A6002508A7000030A71BFF30E9
:101C8800A800A9002908AD002808AC002708AB0067
:101C98002608AA000A128A15AD260A128A15831286
:101CA80003132508803AA60080302602031D5E2E05
:101CB80029302402031C612E622E6F2E0A128A1507
:101CC80046220A128A1583120313FF309500FF304B
:101CD8009B000911AB2E2508803AA6008030260209
:101CE800031D782E1F302402031C7B2E7C2E892E88
:101CF8000A128A1546220A128A15E630831203133D
:101D08009500E6309B000911AB2E2508803AA60005
:101D180080302602031D922E15302402031C952EB6
:101D2800962E9F2E0A128A152C220A128A158312C1
:101D380003130911AB2E0A128A153F220A128A15BB
:101D4800E630831203139500E6309B000915262E12
:101D580008000030C9000130C8008630C700A03034
:101D6800C6002D08C5002C08C4002B08C3002A088B
:101D7800C2000A128A1550230A128A158312031305
:101D88004208B1000030BA000130B9008630B8000E
:101D9800A030B7002D08B6002C08B5002B08B400F9
:101DA8002A08B3000A128A119C210A128A15831282
:101DB80003133608AD003508AC003408AB0033080F
:101DC800AA000030C9000030C8002730C700103012
:101DD800C6002D08C5002C08C4002B08C3002A081B
:101DE800C2000A128A1550230A128A158312031395
:101DF8004208B2000030BA000030B9002730B800FD
:101E08001030B7002D08B6002C08B5002B08B40018
:101E18002A08B3000A128A119C210A128A15831211
:101E280003133608AD003508AC003408AB0033089E
:101E3800AA000030C9000030C8000330C700E830ED
:101E4800C6002D08C5002C08C4002B08C3002A08AA
:101E5800C2000A128A1550230A128A158312031324
:101E68004208B0000030BA000030B9000330B800B2
:101E7800E830B7002D08B6002C08B5002B08B400D0
:101E88002A08B3000A128A119C210A128A158312A1
:101E980003133608AD003508AC003408AB0033082E
:101EA800AA000030C9000030C8000030C700643004
:101EB800C6002D08C5002C08C4002B08C3002A083A
:101EC800C2000A128A1550230A128A1583120313B4
:101ED8004208AE000030BA000030B9000030B80047
:101EE8006430B7002D08B6002C08B5002B08B400E4
:101EF8002A08B3000A128A119C210A128A15831231
:101F080003133608AD003508AC003408AB003308BD
:101F1800AA000030C9000030C8000030C7000A30ED
:101F2800C6002D08C5002C08C4002B08C3002A08C9
:101F3800C2000A128A1550230A128A158312031343
:101F48004208AF000030BA000030B9000030B800D5
:101F58000A30B7002D08B6002C08B5002B08B400CD
:101F68002A08B3000A128A119C210A128A158312C0
:101F780003133608AD003508AC003408AB0033084D
:101F8800AA0031088313303E0A128A11E8270A1280
:101F98008A158312031332088313303E0A128A11FA
:101FA800E8270A128A158312031330088313303E78
:101FB8000A128A11E8270A128A15831203132E08B7
:101FC8008313303E0A128A11E8270A128A158312EF
:101FD80003132F088313303E0A128A11E8270A12C6
:101FE8008A15831203132A088313303E0A128A11B2
:081FF800E8270A128A1508000F
:02400E00323F3F
:00000001FF
